:020000040800F2
:1000000058070020550100088D1600088B160008BF
:1000100000000000000000000000000000000000E0
:100020000000000000000000000000009116000821
:1000300000000000000000008F1600089316000862
:100040006701000800000000670100086701000860
:1000500067010008670100086701000867010008E0
:100060000000000067010008670100086701000840
:100070006701000867010008670100080000000030
:100080009D16000800000000000000006701000845
:100090000000000067010008670100086701000810
:1000A0000000000067010008000000006701000870
:1000B00000F002F800F03EF80CA030C80838241810
:1000C0002D18671EA246AB4654465D46AC4201D190
:1000D00000F030F87E460F3EB6460FCC0126334284
:1000E00000D0FB1A3343A246AB4618474C1B000016
:1000F0006C1B0000103A02D378C878C1FAD85207B6
:1001000001D330C830C101D504680C6070470000CD
:100110000023002400250026103A01D378C1FBD823
:10012000520700D330C100D50B6070471FB51FBD0B
:1001300010B510BD00F04DF81146FFF7F7FF01F0C4
:10014000B3FA00F065F803B4FFF7F2FF03BC00F068
:100150006BF800000748804707480047FEE7FEE7C6
:10016000FEE7FEE7FEE7FEE704480549054A064BC1
:10017000704700009B160008B100000858010020DD
:1001800058070020580300205803002001E004C055
:10019000091F0429FBD28B0701D50280801CC907E7
:1001A00000D00270704700290BD0C30702D0027044
:1001B000401C491E022904D3830702D50280801CFB
:1001C000891EE3E70022EEE70022DFE77047704771
:1001D0007047754600F024F8AE4605006946534660
:1001E000C008C000854618B020B5FFF7BDFF60BC51
:1001F000B64600260027C0C5C0C5C0C5C0C5C0C51D
:10020000C0C5C0C5C0C5403D490849008D467047BE
:1002100010B50446C046C0462046FFF794FF10BD07
:10022000004870471000002001491820ABBEFEE7CF
:10023000260002007047000070B582B00546002419
:1002400001940068816803220A40012A05D10168EF
:10025000C9070ED1C16809040BD48168214A114233
:100260000AD0A86B10210143A963E86B0124204345
:10027000E863204602B070BD816801220A438260B3
:1002800062480068624901F0C3FB019001980028B0
:1002900017D00198401E01900198002811D00198B4
:1002A000401E0190019800280BD00198401E01903B
:1002B0000198002805D00198401E0190019800285F
:1002C000E7D100F0A1FB064628680068C007D0D13E
:1002D00000F09AFB811B28680329F6D30168C9073F
:1002E000F3D1BEE717000080F0B583B00027029776
:1002F0003422825C012A02D1022003B0F0BD0546FF
:1003000034350668B268520717D4009701950B6818
:100310004A68012427469F403A4DAA4213D1B06A49
:10032000B843B0621846A0431028009F3846019D8C
:1003300054D1102B19D0384818E0816B20220A4381
:10034000826301204AE0B26A3A43B262C06A421E46
:10035000072A46D21846A0431028009F3846019D20
:100360003CD1102B0AD0A00509E02A4826490A688A
:1003700002400A6038462F7003B0F0BDE005224904
:100380000A6802430A60102B384627D11F480068CC
:100390001F4901F03DFB0A214143029102980028C8
:1003A00038461BD00298401E02900298002811D0B7
:1003B0000298401E0290029800280BD00298401E1E
:1003C00002900298002805D00298401E02900298E0
:1003D0000028E7D138462F7003B0F0BD2F7003B06E
:1003E000F0BD22079042B5D07269072002408968AB
:1003F0009142AFD0726982437261014070690843D3
:100400007061A7E7011000000827014008000020E4
:1004100040420F00FFFF7FFFFFFFBFFF0068006C3F
:1004200070470000F0B581B00125002862D0044675
:1004300006462436806B002803D0A06BC00609D581
:1004400054E000203074E063204600F097F8A06B81
:10045000C0064BD420688168490747D481214900F0
:10046000A26B8A43911CA163826803210A40012A7E
:1004700005D10268D2070ED1C26812040BD4C2683B
:1004800018239A43A3681343C360890702698A4308
:10049000616811430161C168364A0A40C260A16ABD
:1004A000491E4A1E91410903227E9203637EDB03AB
:1004B0001343A27E55031D43E36827692B430B4377
:1004C000B91E4D424D41AD001D43317849002943CD
:1004D000E37E012B14D1002A0FD0A26B20231343FB
:1004E000A363E26B01231343E36309E0A06B1021D4
:1004F0000143A163284601B0F0BD0122120411435B
:10050000E269FF23C2339A4202D0236A194311439E
:10051000C2680A43C260E26A531E072B24D24369B1
:100520000725AB4343612A40436913434361C068D5
:10053000114A02408A420AD10025E563A06B0121DD
:10054000014302208143A163284601B0F0BDA06BA6
:100550001021014302208143A163E06B0125284360
:10056000E063284601B0F0BD01231B079A42D6D0B4
:10057000DDE7C0461902FEFFE7FF3F8310B586B0F6
:100580000021059104910068114A904201D006B003
:1005900010BD012042020F4B5C6814435C605C6834
:1005A00014400094009A40041A6802431A601A68C2
:1005B000024000920391032002900720019009203D
:1005C000C006009901A900F039F906B010BDC04677
:1005D0000024014014100240F0B581B00D460446DD
:1005E0004069082801D1082704E02068C068C007D6
:1005F00064D10C2700F008FA0646216808683842E2
:100600001CD001204202A36B1343A363CA681205E6
:10061000920F66D1A27E002A63D10A68120760D5C4
:100620008A68520754D4224638324B680C25AB43B3
:100630004B60FF2502351368AB4350E0681C39D08E
:10064000002D1BD10868384221D008683842D8D123
:10065000086838421BD008683842D2D1086838424E
:1006600015D008683842CCD1086838420FD00868E5
:100670003842E7D0C5E708683842C2D100F0C4F973
:10068000801B2168A842F6D908683842F3D134208B
:1006900000212154A06B04210143A163032001B078
:1006A000F0BD08683842ACD108683842A9D1086862
:1006B0003842A6D108683842F3D0A2E7342000219E
:1006C0002154A06B20210143A163012001B0F0BDA2
:1006D000A26B20231343A36322463C32E36B034304
:1006E0001360227E0020002A01D001B0F0BD0C2250
:1006F0000A6001B0F0BD000070B504460068816872
:10070000022049070FD43421615C01290BD0254612
:10071000343501262E70607E012805D02046FFF773
:100720008BFD002800D070BDA06B0849014030024D
:100730000818A0630020E06321681C220A6028706A
:100740008A68042313438B6070BDC046FEF0FFFF30
:10075000F0B581B004463420205C012802D102208B
:1007600001B0F0BD26463436012737702068816815
:10077000490711D4826803210A40012A05D1026881
:10078000D20724D1C268120421D4FF200230A16B09
:100790008143383400203BE08168490706D58168F1
:1007A000890703D4816810220A43826000F02CF983
:1007B0000546206881684907DCD500F025F9411B12
:1007C00020680329F6D381684907F3D519E08268C8
:1007D00005231340012B14D1826802231343836045
:1007E000016000F011F9054620688068C007CCD090
:1007F00000F00AF9411B20680329F6D38168C90774
:10080000F3D0A06B10210143A163E16B3C34384667
:10081000002232703943216001B0F0BDB0B504460A
:1008200000F0F2F80546601C02D0B04800780419C8
:1008300000F0EAF8401BA042FAD3B0BDF0B58AB090
:1008400003900F68002F00D1C3E06348039A8242EF
:1008500001D0052000E00320009000231A461C462A
:1008600008910BE03A43F260079A641C0F6838461F
:10087000E0409B1C121D002800D1AAE0012605962D
:10088000A6403740F1D00792032002469A400293D7
:10089000D34349680D4605406A1E012A0693049118
:1008A00013D80197039FB8681840089AD268029B32
:1008B0009A400243BA60C806C00FA0407A68B243AB
:1008C0003E46019F0243726006E0032D039E029B99
:1008D00002D10546079A1EE0F0680699084008997B
:1008E0008A689A400243F260022D079A13D11C20B5
:1008F00010400F218140E2089200B218156A8D4322
:10090000089E3169814029431162079A7068039EED
:100910000325049005409D4030680699084028430F
:10092000306004988003800F08999ED07A49086847
:10093000059D284308600868284009900C20104055
:100940000F228240032125468D430999244EA9593F
:100950009143AD190922D206039E96420CD0214A3A
:10096000964206D0204A9642009A1C4E06D1022298
:1009700004E01A4E059A01E00022184E82400A4314
:100980002A603568089801464068C2030FD53D4388
:100990003560756882030FD4BD437560B568C202C7
:1009A0000FD4BD43B560F268800210D55AE7BD434D
:1009B000356075688203EFD53D437560B568C20246
:1009C000EFD53D43B560F268800200D54AE7BA43EF
:1009D00049E70AB0F0BDC046000C004800040140E1
:1009E0000800014000040048000800480069084071
:1009F000411E88417047002A02D01822815070475A
:100A00002822815070470000214800687047C04686
:100A1000B0B5002823D0044600681349016013498B
:100A2000016061684160A1688160FFF7EDFF0546E4
:100A30002068C16849070AD0FFF7E6FF411B20681C
:100A40002829F6D3C1684907F3D00320B0BDE16877
:100A500002698A4205D1094901600020B0BD012028
:100A6000B0BD01610020B0BDCCCC000055550000E8
:100A700000680249016000207047C046AAAA000031
:100A80001A48007802490A68101808607047C04682
:100A90005001002080B58348016810220A4302609B
:100AA000032000F005F800F023F8002080BDC046C8
:100AB00070B504467D20C0000C4E317800F0A8FFD0
:100AC00001468048006800F0A3FF00F0F7FA012516
:100AD000032C08D8002806D10025E84321462A46E1
:100AE00000F028F87460284670BDC0460000002061
:100AF00082B0094801680122114301600168114078
:100B000001910199110742680A4342604068084018
:100B10000090009802B0704718100240002805D4D9
:100B20001F21084001218140014801607047C046F3
:100B300000E100E0002805D40322034693430A4A5B
:100B40009A1803E00C220240064BD2188007C00E10
:100B50008901C9B28140FF2383401068984308434C
:100B60001060704714ED00E000E400E0F0B581B0E3
:100B700000284FD004464B4A1368012003408B42A3
:100B800008D213680126B3430B4313601268324046
:100B90008A4240D1009121688A07434B11D54A0708
:100BA00007D507221202404B1B6813433E4A1360CD
:100BB0003D4B1A68F0239A43A36813433A4A1360E3
:100BC000394BC9072AD13749086801263040009AB5
:100BD000904205D90868B04308600868C0071AD178
:100BE0002078400706D50720000219688143E06895
:100BF0000843186019680C220A402D48082A18D1A9
:100C00008A02120F2B4B9C5C274B9A6AC90332D481
:100C10002A4837E00126304601B0F0BD61681A1F4E
:100C2000022908D001290BD1126892030646F2D599
:100C30000AE0044627E0126892010646EBD503E07D
:100C4000126892070646E6D518680326B0430843A3
:100C50001860FFF7D9FE0746144D134B18680C2196
:100C60000140606880008142ADD0FFF7CDFEC01B1F
:100C7000A842F2D9CFE70F210A400F49895C00F062
:100C8000C7FE094B444318680006000F0C49085C76
:100C9000C4400C4804600320FFF70AFF00263046DA
:100CA00001B0F0BD00200240041002408813000093
:100CB00000127A00161C0008261C000800093D00DE
:100CC000061C000808000020F0B587B0044601208B
:100CD000002C00D1EAE104902078C007F44E05947E
:100CE00026D071680C20014004291AD07168014097
:100CF000082902D17068C00313D461680120470439
:100D0000002900D184E1052900D198E1012900D111
:100D100099E1010432688A43326081043068884373
:100D200094E13068800303D56068002800D1BDE0FD
:100D3000207880071AD570680007800F07D0706888
:100D40000C210140082975D17068C00372D4306845
:100D50008007059C03D5E068012800D0A6E0306834
:100D6000F82188432169C90001433160059C20783E
:100D7000000724D42078400736D42078C00600D459
:100D8000B4E005984069411D00D1A3E0012800D0DE
:100D9000F4E0706B042101437163706B0121014326
:100DA0007163FFF731FE0546706B800700D595E053
:100DB000FFF72AFE411B03200229F5D976E1706A6C
:100DC000E169002960D0012108437062FFF71CFE31
:100DD0000546706A8007CDD4FFF716FE401B022837
:100DE000F7D9032007B0F0BD012003900107F06997
:100DF0000840029006D1F0690843F061F0690840AC
:100E0000069006980191AB4F3868C00528D4039826
:100E10000402386820433860FFF7F6FD054638685D
:100E200020421DD1FFF7F0FD401B6428F7D90320B5
:100E300007B0F0BD3068059CE168002939D0012178
:100E400008433060FFF7E0FD05463068800786D430
:100E5000FFF7DAFD401B0228F7D9032007B0F0BDE9
:100E600005988068944F002800D19CE0052800D1A7
:100E7000AEE0012800D1AFE0306A039988433062C8
:100E8000306A04218843AAE0012188437062FFF799
:100E9000BBFD0546706A800700D46BE7FFF7B4FD21
:100EA000401B0228F6D9032007B0F0BD049807B014
:100EB000F0BD012188433060FFF7A6FD054630688C
:100EC000800700D452E7FFF79FFD411B0320022952
:100ED000F5D9EBE0706B042188437063706BF821E7
:100EE000884305998969C900014371630598046ABB
:100EF000002C1ED070680C21014008291CD1012C47
:100F0000049800D1D2E00120030471680B40F26A1A
:100F1000059D6C6AA34200D0C8E00F231A40EC6A1A
:100F2000A24200D0C2E09A041140AA6A914200D0C5
:100F3000BCE0002007B0F0BD012002063168049239
:100F4000914331604706FFF75FFD0546022C0BD148
:100F5000049C3068384200D188E0FFF755FD411B02
:100F600003200229F5D9A1E030683842E1D0FFF72B
:100F70004BFD411B03200229F6D997E0706B042139
:100F800001437163706B012188437063FFF73CFD7F
:100F90000546706B8007A9D5FFF736FD411B03207E
:100FA0000229F6D982E0306A039988433062306AB8
:100FB000042188433062FFF727FD0546306A800729
:100FC0001CD5FFF721FD411B0320B942F6D96DE086
:100FD000306A042101433162306A03990843306268
:100FE000FFF712FD0546306A800707D4FFF70CFDB6
:100FF000401BB842F7D9032007B0F0BD0298002883
:10100000059C00D0B9E6F06901998843F061B4E627
:10101000010432688A433260800431688143316060
:10102000FFF7F2FC0546059C3068384200D17FE6A8
:10103000FFF7EAFC411B03206429F5D936E081045F
:1010400032680A4332600104306808433060FFF7B9
:10105000DBFC05463068384200D069E6FFF7D4FC77
:10106000401B6428F6D9032007B0F0BDF06A0F21B9
:101070008843059AD16A0143F1623D2000047168FA
:101080008143906A0843516A01437160306820438C
:101090003060FFF7B9FC04463068384200D048E7BA
:1010A000FFF7B2FC011B03200229F5D907B0F0BD00
:1010B000001002400070004088130000401E010E26
:1010C00001D0012070470749074A5060074803686C
:1010D0000B40032189075918016000209060072107
:1010E00011607047FFFFFF0010E000E020ED00E01E
:1010F0007047704710B53C22825C012A01D1022062
:1011000010BD02463C3202235370006843687024CD
:10111000A3430C681C43836844605B4CA04202D02C
:101120005A4CA04204D18024A343496819438160EA
:10113000002010700121517010BDC04670B500280C
:1011400024D0044605463C356878002804D10020A8
:101150002870204600F058F8022068702068036864
:101160004949884202D0494A904211D170229343A2
:10117000A2681A43204B98420EDD884212D01F4BC2
:1011800098420FD01E4B98420CD033E0012070BD26
:101190001A46194B9842F0DC3C4B984202D0194B4E
:1011A000984227D103231B029A4323691343224603
:1011B0003E328026B343A6691E430660E368C362DD
:1011C00063688362884205D00C49884202D00C498A
:1011D000884201D16169016301214161117211707D
:1011E00051709170D170117151719171D17169709B
:1011F000002070BD1346DAE7FF2B01400048014094
:10120000004401400020004010B582B000681F4932
:10121000884201D002B010BD094801680222114382
:1012200001600068104001900198102400212046C0
:101230000A46FFF77FFC2046FFF770FC02B010BDA6
:101240001C1002403D21415C012915D101463D3170
:1012500002220A700068C26801210A43C2600A4A79
:10126000904202D0094A904208D182680723134075
:10127000062B03D1002070470120704702680A4303
:10128000026000207047C046002C0140000400406E
:10129000F0B53C22825C012A01D10220F0BD024659
:1012A0003C3202235370504E3346773B0468A068AB
:1012B0001840A0600D6800234F2D1EDC1F2D35DD6A
:1012C000202D37D0302D35D0402D00D086E0206A3B
:1012D000256A0126B5432562A569F026B543CE6887
:1012E00036012E43A6610A25A843496801432162BD
:1012F000A06847210143302069E06F2D26DD0120E1
:101300004703BD4240D00003854218461AD0702DD5
:1013100064D1A06830404D688E68C9682E430902C8
:1013200031430143A160A068772139E0002D01D04D
:10133000102D53D1A068702188430543072028430E
:10134000A0601846137001215170F0BD502D29D0B6
:10135000602D43D11020C043256A054025620F252A
:101360002D03A669AE43CD682D033543266AA561DA
:10137000A025AE434968090131432162A168672570
:101380000D430540A56024E0A56835404E688F6890
:10139000C9683743090239432943A1608003A16822
:1013A000014315E0206A256A0126B5432562A56937
:1013B000F026B543CE6836012E43A6610A25A84320
:1013C000496801432162A0685721014320208143DD
:1013D000A1601846137001215170F0BD01201370F7
:1013E00001215170F0BDC046FF00FFFF7047B0B54E
:1013F00004468020C54320680169890717D5C16864
:10140000890714D529467E31016101212177806940
:10141000800703D02046FFF7E9FF05E0204600F0F3
:101420008AF8204600F088F80020207720680169BB
:10143000490718D5C168490715D529467C3101618E
:101440000221217780698005800F03D02046FFF7B5
:10145000CDFF05E0204600F06EF8204600F06CF865
:101460000020207720680169090717D5C16809079E
:1014700014D529467831016104212177C06980079C
:1014800003D02046FFF7B2FF05E0204600F053F8F6
:10149000204600F051F80020207720680169C90635
:1014A00018D5C168C90615D52946703101610821D2
:1014B0002177C0698005800F03D02046FFF796FF93
:1014C00005E0204600F037F8204600F035F800200F
:1014D000207720680169C90709D0C168C90706D00B
:1014E00029467F310161204600F028F82068016913
:1014F000090607D5C168090604D505612046FFF72E
:10150000F7FD20680169490609D5C168490606D575
:10151000294640310161204600F0B6F82068016993
:10152000890607D5C168890604D56035056120465E
:10153000FFF7DFFDB0BD70477047000070B54F4E3C
:1015400070883082B18A00290DD0884205D9F08A8E
:10155000718A884205D2401C01E000203083F0826D
:1015600001E00120308330887083F18B00290DD099
:10157000884206D9308CB18B884205D2401C308419
:1015800004E00020306201E001207084B088B08463
:10159000318D00290DD0884205D9708DF18C88429B
:1015A00005D2401C01E00020B085708501E00120DB
:1015B000B0854420315A306CFFF718FA002805D066
:1015C0000020B08731463C31488111E04620325A34
:1015D000F18F8A4205D2521C3252294A914205D0DB
:1015E00006E00122B287264A914201D10021315200
:1015F000B08D00281FD00920C406402101252046B7
:101600002A46FFF7F8F9102120462A46FFF7F3F99A
:1016100070891C49884201D8401C7081308900289B
:1016200005D0F089112802D30020B08170810020FC
:10163000F081308170BDF089112815D30920C406CE
:10164000102100222046FFF7D6F9CD2080007189B5
:10165000411AB08981420CDA402100222046FFF76E
:10166000CAF90120308170BD401CF0810120308119
:1016700070BD401CB0810120308170BD7000002021
:10168000FFFF0000EE0200007047FEE7FEE7704734
:10169000704780B5FFF7F4F980BD704780B5D84832
:1016A000FFF7A5FE80BDC04698B0FFF7F3F90CAE7A
:1016B000301D2C21FEF788FD00241494012513957C
:1016C000102010900F950A200C903046FFF7FCFA7E
:1016D000002803D0EFF3108072B6FEE70B940A9453
:1016E00009940720089008A82146FFF73FFA002830
:1016F00003D0EFF3108072B6FEE710946804B94986
:101700000A6802430A600A68024008920898AA041C
:101710000868104308600868049210400890089810
:101720000920C706F026384631462246FFF763F9FE
:101730000F940E940D950C960CAE039738463146D7
:10174000FFF77CF80E940D94022006900C90A648AA
:101750003146FFF773F82421A4484454856204629B
:10176000FF26463631467C310422EB07A04F076046
:1017700043608460C460056142618461C161FEF7B9
:1017800051FE002803D0EFF3108072B6FEE7994FA8
:101790009948401E3C63019078630698B8630294B0
:1017A0003C46303491482146FEF79EFD002803D088
:1017B000EFF3108072B6FEE73D638C482146FEF7DA
:1017C00093FD002803D0EFF3108072B6FEE7069871
:1017D000386386482146FEF787FD002803D0EFF3E3
:1017E000108072B6FEE7059405208449B964F86458
:1017F0003E657E653E4648363046FFF709F90028CB
:1018000003D0EFF3108072B6FEE77D48029C84613E
:101810007C49192252011346C8331AC00260446041
:101820000F940E940D94099408940C38FFF786FCDD
:10183000002803D0EFF3108072B6FEE701980C90F9
:101840006F480CA9FFF724FD002803D0EFF31080A8
:1018500072B6FEE76A4808A9FFF74CFC002803D0DF
:10186000EFF3108072B6FEE701966748BC856749C2
:101870005D4A3A6403221204BC60FC603A617861FC
:10188000BC61F9613C627A6238463C30069901815C
:101890004B200001B8620498F8635948FFF7D2FC66
:1018A0000A20FEF7BBFF802103982A46FFF7A3F822
:1018B000E043049007950BE0BD80B88F424242415F
:1018C00020210398FFF797F80A20FEF7A7FF079D4E
:1018D0000198FFF7CDF8029838637D63069DBD63DC
:1018E0004248059C2146FEF7FFFC0028049E304636
:1018F00021D13E4C2046FEF7FFFE20463146FEF742
:101900006BFE002801D0002703E02046FEF786FD8D
:101910000746384D384E2046FEF71AFF6E632046C4
:101920000599FEF7E1FC0028384600D00498069D92
:10193000304F059C049E079939637963BD637880B5
:101940002A482146FEF7D0FC0028304621D1274CFA
:101950002046FEF7D1FE20463146FEF73DFE002828
:1019600001D0002703E02046FEF758FD0746214D31
:10197000214E2046FEF7ECFE6E6320460599FEF7E9
:10198000B3FC0028384600D00498069D194F059CEA
:10199000049E3D6307997963BD63388013482146EF
:1019A000FEF7A2FC0028354686D1104D2846FEF7EA
:1019B000A3FE28463146FEF70FFE0028029D03D104
:1019C0000A48FEF72BFD05460848FEF7C1FE0A4807
:1019D000786306482146FEF787FC002800D16BE7B4
:1019E000354669E71410024000040048C800002092
:1019F0000024014070000020011000000030004071
:101A000008010020000400408809000003004D0682
:101A100043088B421AD3002203098B4279D3030A6D
:101A20008B425ED3030B8B4242D3030C8B4227D3F2
:101A30000902FF2212BA030C8B4202D312120902CE
:101A400003D0030B8B4233D31AE0D3E0411A804119
:101A5000401C704703460B4371D443088B42F5D3B7
:101A6000002203098B4254D3030A8B4239D3030B60
:101A70008B421DD3030C8B4202D394466EE0090ABD
:101A8000C30B8B4201D3CB03C01A5241830B8B4251
:101A900001D38B03C01A5241430B8B4201D34B033A
:101AA000C01A5241030B8B4201D30B03C01A52419F
:101AB000C30A8B4201D3CB02C01A5241830A8B4224
:101AC00001D38B02C01A5241430A8B4201D34B020D
:101AD000C01A5241030A8B4201D30B02C01A524171
:101AE000CDD2C3098B4201D3CB01C01A5241830925
:101AF0008B4201D38B01C01A524143098B4201D35F
:101B00004B01C01A524103098B4201D30B01C01A89
:101B10005241C3088B4201D3CB00C01A5241830803
:101B20008B4201D38B00C01A524143088B4201D330
:101B30004B00C01A5241411A524110007047CA0F5F
:101B400000D04942031000D34042534000229C463B
:101B500003098B422DD3030A8B4212D38901FC2245
:101B600012BA030A8B420CD3890192118B4208D31B
:101B7000890192118B4204D3890137D0921100E080
:101B80008909C3098B4201D3CB01C01A5241830991
:101B90008B4201D38B01C01A524143098B4201D3BE
:101BA0004B01C01A524103098B4201D30B01C01AE9
:101BB0005241C3088B4201D3CB00C01A5241830863
:101BC0008B4201D38B00C01A5241D9D243088B42B9
:101BD00001D34B00C01A5241411A00D20146524172
:101BE000104663465B1000D34042704763465B106B
:101BF00000D3404201B50021004201D0C94308464C
:101C0000C046C04602BD0000000000000000010206
:101C100003040607080902030405060708090A0B5E
:101C20000C0D0E0F10100102030405060708090A27
:101C30000B0C0D0E0F100000581C000800000020B7
:101C400010000000F4000008681C000810000020CC
:101C50004807000010010008010000000400000017
:081C600000127A0000000000F0
:04000005080000B13E
:00000001FF
